{
  "contractName": "SimpleToken",
  "abi": [
    {
      "constant": true,
      "inputs": [
        {
          "name": "interfaceId",
          "type": "bytes4"
        }
      ],
      "name": "supportsInterface",
      "outputs": [
        {
          "name": "",
          "type": "bool"
        }
      ],
      "payable": false,
      "stateMutability": "view",
      "type": "function"
    },
    {
      "constant": true,
      "inputs": [],
      "name": "name",
      "outputs": [
        {
          "name": "",
          "type": "string"
        }
      ],
      "payable": false,
      "stateMutability": "view",
      "type": "function"
    },
    {
      "constant": true,
      "inputs": [
        {
          "name": "tokenId",
          "type": "uint256"
        }
      ],
      "name": "getApproved",
      "outputs": [
        {
          "name": "",
          "type": "address"
        }
      ],
      "payable": false,
      "stateMutability": "view",
      "type": "function"
    },
    {
      "constant": false,
      "inputs": [
        {
          "name": "to",
          "type": "address"
        },
        {
          "name": "tokenId",
          "type": "uint256"
        }
      ],
      "name": "approve",
      "outputs": [],
      "payable": false,
      "stateMutability": "nonpayable",
      "type": "function"
    },
    {
      "constant": false,
      "inputs": [
        {
          "name": "_addr",
          "type": "address"
        }
      ],
      "name": "removeAdmin",
      "outputs": [],
      "payable": false,
      "stateMutability": "nonpayable",
      "type": "function"
    },
    {
      "constant": true,
      "inputs": [],
      "name": "totalSupply",
      "outputs": [
        {
          "name": "",
          "type": "uint256"
        }
      ],
      "payable": false,
      "stateMutability": "view",
      "type": "function"
    },
    {
      "constant": false,
      "inputs": [
        {
          "name": "from",
          "type": "address"
        },
        {
          "name": "to",
          "type": "address"
        },
        {
          "name": "tokenId",
          "type": "uint256"
        }
      ],
      "name": "transferFrom",
      "outputs": [],
      "payable": false,
      "stateMutability": "nonpayable",
      "type": "function"
    },
    {
      "constant": true,
      "inputs": [
        {
          "name": "_addr",
          "type": "address"
        }
      ],
      "name": "isAdmin",
      "outputs": [
        {
          "name": "",
          "type": "bool"
        }
      ],
      "payable": false,
      "stateMutability": "view",
      "type": "function"
    },
    {
      "constant": true,
      "inputs": [
        {
          "name": "owner",
          "type": "address"
        },
        {
          "name": "index",
          "type": "uint256"
        }
      ],
      "name": "tokenOfOwnerByIndex",
      "outputs": [
        {
          "name": "",
          "type": "uint256"
        }
      ],
      "payable": false,
      "stateMutability": "view",
      "type": "function"
    },
    {
      "constant": true,
      "inputs": [
        {
          "name": "account",
          "type": "address"
        }
      ],
      "name": "isUser",
      "outputs": [
        {
          "name": "",
          "type": "bool"
        }
      ],
      "payable": false,
      "stateMutability": "view",
      "type": "function"
    },
    {
      "constant": false,
      "inputs": [
        {
          "name": "_addr",
          "type": "address"
        }
      ],
      "name": "addUser",
      "outputs": [],
      "payable": false,
      "stateMutability": "nonpayable",
      "type": "function"
    },
    {
      "constant": false,
      "inputs": [
        {
          "name": "_id",
          "type": "uint256"
        }
      ],
      "name": "burn",
      "outputs": [],
      "payable": false,
      "stateMutability": "nonpayable",
      "type": "function"
    },
    {
      "constant": true,
      "inputs": [
        {
          "name": "index",
          "type": "uint256"
        }
      ],
      "name": "tokenByIndex",
      "outputs": [
        {
          "name": "",
          "type": "uint256"
        }
      ],
      "payable": false,
      "stateMutability": "view",
      "type": "function"
    },
    {
      "constant": true,
      "inputs": [
        {
          "name": "tokenId",
          "type": "uint256"
        }
      ],
      "name": "ownerOf",
      "outputs": [
        {
          "name": "",
          "type": "address"
        }
      ],
      "payable": false,
      "stateMutability": "view",
      "type": "function"
    },
    {
      "constant": false,
      "inputs": [
        {
          "name": "_addr",
          "type": "address"
        }
      ],
      "name": "addAdmin",
      "outputs": [],
      "payable": false,
      "stateMutability": "nonpayable",
      "type": "function"
    },
    {
      "constant": true,
      "inputs": [
        {
          "name": "owner",
          "type": "address"
        }
      ],
      "name": "balanceOf",
      "outputs": [
        {
          "name": "",
          "type": "uint256"
        }
      ],
      "payable": false,
      "stateMutability": "view",
      "type": "function"
    },
    {
      "constant": true,
      "inputs": [],
      "name": "getCounter",
      "outputs": [
        {
          "name": "",
          "type": "uint256"
        }
      ],
      "payable": false,
      "stateMutability": "view",
      "type": "function"
    },
    {
      "constant": true,
      "inputs": [],
      "name": "symbol",
      "outputs": [
        {
          "name": "",
          "type": "string"
        }
      ],
      "payable": false,
      "stateMutability": "view",
      "type": "function"
    },
    {
      "constant": false,
      "inputs": [
        {
          "name": "_addr",
          "type": "address"
        }
      ],
      "name": "removeUser",
      "outputs": [],
      "payable": false,
      "stateMutability": "nonpayable",
      "type": "function"
    },
    {
      "constant": false,
      "inputs": [
        {
          "name": "to",
          "type": "address"
        },
        {
          "name": "approved",
          "type": "bool"
        }
      ],
      "name": "setApprovalForAll",
      "outputs": [],
      "payable": false,
      "stateMutability": "nonpayable",
      "type": "function"
    },
    {
      "constant": true,
      "inputs": [
        {
          "name": "tokenId",
          "type": "uint256"
        }
      ],
      "name": "tokenURI",
      "outputs": [
        {
          "name": "",
          "type": "string"
        }
      ],
      "payable": false,
      "stateMutability": "view",
      "type": "function"
    },
    {
      "constant": false,
      "inputs": [
        {
          "name": "_from",
          "type": "address"
        },
        {
          "name": "_to",
          "type": "address"
        },
        {
          "name": "_details",
          "type": "string"
        }
      ],
      "name": "safeMint",
      "outputs": [
        {
          "name": "",
          "type": "uint256"
        }
      ],
      "payable": false,
      "stateMutability": "nonpayable",
      "type": "function"
    },
    {
      "constant": true,
      "inputs": [
        {
          "name": "owner",
          "type": "address"
        },
        {
          "name": "operator",
          "type": "address"
        }
      ],
      "name": "isApprovedForAll",
      "outputs": [
        {
          "name": "",
          "type": "bool"
        }
      ],
      "payable": false,
      "stateMutability": "view",
      "type": "function"
    },
    {
      "inputs": [],
      "payable": false,
      "stateMutability": "nonpayable",
      "type": "constructor"
    },
    {
      "anonymous": false,
      "inputs": [
        {
          "indexed": true,
          "name": "account",
          "type": "address"
        }
      ],
      "name": "AdminAdded",
      "type": "event"
    },
    {
      "anonymous": false,
      "inputs": [
        {
          "indexed": true,
          "name": "account",
          "type": "address"
        }
      ],
      "name": "AdminRemoved",
      "type": "event"
    },
    {
      "anonymous": false,
      "inputs": [
        {
          "indexed": true,
          "name": "account",
          "type": "address"
        }
      ],
      "name": "UserAdded",
      "type": "event"
    },
    {
      "anonymous": false,
      "inputs": [
        {
          "indexed": true,
          "name": "account",
          "type": "address"
        }
      ],
      "name": "UserRemoved",
      "type": "event"
    },
    {
      "anonymous": false,
      "inputs": [
        {
          "indexed": true,
          "name": "from",
          "type": "address"
        },
        {
          "indexed": true,
          "name": "to",
          "type": "address"
        },
        {
          "indexed": true,
          "name": "tokenId",
          "type": "uint256"
        }
      ],
      "name": "Transfer",
      "type": "event"
    },
    {
      "anonymous": false,
      "inputs": [
        {
          "indexed": true,
          "name": "owner",
          "type": "address"
        },
        {
          "indexed": true,
          "name": "approved",
          "type": "address"
        },
        {
          "indexed": true,
          "name": "tokenId",
          "type": "uint256"
        }
      ],
      "name": "Approval",
      "type": "event"
    },
    {
      "anonymous": false,
      "inputs": [
        {
          "indexed": true,
          "name": "owner",
          "type": "address"
        },
        {
          "indexed": true,
          "name": "operator",
          "type": "address"
        },
        {
          "indexed": false,
          "name": "approved",
          "type": "bool"
        }
      ],
      "name": "ApprovalForAll",
      "type": "event"
    },
    {
      "constant": false,
      "inputs": [
        {
          "name": "from",
          "type": "address"
        },
        {
          "name": "to",
          "type": "address"
        },
        {
          "name": "tokenId",
          "type": "uint256"
        }
      ],
      "name": "safeTransferFrom",
      "outputs": [],
      "payable": false,
      "stateMutability": "nonpayable",
      "type": "function"
    },
    {
      "constant": false,
      "inputs": [
        {
          "name": "to",
          "type": "address"
        },
        {
          "name": "tokenId",
          "type": "uint256"
        }
      ],
      "name": "safeTransferFrom",
      "outputs": [],
      "payable": false,
      "stateMutability": "nonpayable",
      "type": "function"
    },
    {
      "constant": false,
      "inputs": [
        {
          "name": "from",
          "type": "address"
        },
        {
          "name": "to",
          "type": "address"
        },
        {
          "name": "tokenId",
          "type": "uint256"
        },
        {
          "name": "_data",
          "type": "bytes"
        }
      ],
      "name": "safeTransferFrom",
      "outputs": [],
      "payable": false,
      "stateMutability": "nonpayable",
      "type": "function"
    },
    {
      "constant": true,
      "inputs": [
        {
          "name": "_tokenId",
          "type": "uint256"
        }
      ],
      "name": "getSimpleToken",
      "outputs": [
        {
          "components": [
            {
              "name": "id",
              "type": "uint256"
            },
            {
              "name": "from",
              "type": "address"
            },
            {
              "name": "to",
              "type": "address"
            },
            {
              "name": "details",
              "type": "string"
            }
          ],
          "name": "token",
          "type": "tuple"
        }
      ],
      "payable": false,
      "stateMutability": "view",
      "type": "function"
    }
  ],
  "bytecode": "0x60806040523480156200001157600080fd5b506040518060400160405280600b81526020017f53696d706c65546f6b656e0000000000000000000000000000000000000000008152506040518060400160405280600581526020017f7370546b6e000000000000000000000000000000000000000000000000000000815250620000966301ffc9a760e01b6200013a60201b60201c565b620000ae6380ac58cd60e01b6200013a60201b60201c565b8160059080519060200190620000c692919062000452565b508060069080519060200190620000df92919062000452565b50620000f8635b5e139f60e01b6200013a60201b60201c565b50506200011263780e9d6360e01b6200013a60201b60201c565b62000123336200021260201b60201c565b62000134336200027360201b60201c565b62000664565b63ffffffff60e01b817bffffffffffffffffffffffffffffffffffffffffffffffffffffffff19161415620001a6576040517f08c379a00000000000000000000000000000000000000000000000000000000081526004016200019d906200060f565b60405180910390fd5b6001600080837bffffffffffffffffffffffffffffffffffffffffffffffffffffffff19167bffffffffffffffffffffffffffffffffffffffffffffffffffffffff1916815260200190815260200160002060006101000a81548160ff02191690831515021790555050565b6200022d81600e620002d460201b620020c51790919060201c565b8073ffffffffffffffffffffffffffffffffffffffff167f19ef9a4877199f89440a26acb26895ec02ed86f2df1aeaa90dc18041b892f71f60405160405180910390a250565b6200028e81600f620002d460201b620020c51790919060201c565b8073ffffffffffffffffffffffffffffffffffffffff167f44d6d25963f097ad14f29f06854a01f575648a1ef82f30e562ccd3889717e33960405160405180910390a250565b620002e682826200038760201b60201c565b1562000329576040517f08c379a00000000000000000000000000000000000000000000000000000000081526004016200032090620005ed565b60405180910390fd5b60018260000160008373ffffffffffffffffffffffffffffffffffffffff1673ffffffffffffffffffffffffffffffffffffffff16815260200190815260200160002060006101000a81548160ff0219169083151502179055505050565b60008073ffffffffffffffffffffffffffffffffffffffff168273ffffffffffffffffffffffffffffffffffffffff161415620003fb576040517f08c379a0000000000000000000000000000000000000000000000000000000008152600401620003f29062000631565b60405180910390fd5b8260000160008373ffffffffffffffffffffffffffffffffffffffff1673ffffffffffffffffffffffffffffffffffffffff16815260200190815260200160002060009054906101000a900460ff16905092915050565b828054600181600116156101000203166002900490600052602060002090601f016020900481019282601f106200049557805160ff1916838001178555620004c6565b82800160010185558215620004c6579182015b82811115620004c5578251825591602001919060010190620004a8565b5b509050620004d59190620004d9565b5090565b620004fe91905b80821115620004fa576000816000905550600101620004e0565b5090565b90565b600062000510601f8362000653565b91507f526f6c65733a206163636f756e7420616c72656164792068617320726f6c65006000830152602082019050919050565b600062000552601c8362000653565b91507f4552433136353a20696e76616c696420696e74657266616365206964000000006000830152602082019050919050565b60006200059460228362000653565b91507f526f6c65733a206163636f756e7420697320746865207a65726f20616464726560008301527f73730000000000000000000000000000000000000000000000000000000000006020830152604082019050919050565b60006020820190508181036000830152620006088162000501565b9050919050565b600060208201905081810360008301526200062a8162000543565b9050919050565b600060208201905081810360008301526200064c8162000585565b9050919050565b600082825260208201905092915050565b613dc080620006746000396000f3fe608060405234801561001057600080fd5b50600436106101a95760003560e01c80634f6ccce7116100f95780639857518811610097578063b88d4fde11610071578063b88d4fde146104ee578063c87b56dd1461050a578063e2bbdb261461053a578063e985e9c51461056a576101a9565b80639857518814610486578063a22cb465146104a2578063a69f5807146104be576101a9565b806370480275116100d357806370480275146103fe57806370a082311461041a5780638ada066e1461044a57806395d89b4114610468576101a9565b80634f6ccce714610382578063551026bb146103b25780636352211e146103ce576101a9565b806323b872dd116101665780634209fff1116101405780634209fff1146102fe578063421b2d8b1461032e57806342842e0e1461034a57806342966c6814610366576101a9565b806323b872dd1461028257806324d7806c1461029e5780632f745c59146102ce576101a9565b806301ffc9a7146101ae57806306fdde03146101de578063081812fc146101fc578063095ea7b31461022c5780631785f53c1461024857806318160ddd14610264575b600080fd5b6101c860048036036101c39190810190612e04565b61059a565b6040516101d5919061382e565b60405180910390f35b6101e6610601565b6040516101f39190613849565b60405180910390f35b61021660048036036102119190810190612e56565b6106a3565b60405161022391906137c7565b60405180910390f35b61024660048036036102419190810190612dc8565b610728565b005b610262600480360361025d9190810190612bf6565b6108e3565b005b61026c610937565b6040516102799190613b4d565b60405180910390f35b61029c60048036036102979190810190612cc2565b610944565b005b6102b860048036036102b39190810190612bf6565b6109a4565b6040516102c5919061382e565b60405180910390f35b6102e860048036036102e39190810190612dc8565b6109c1565b6040516102f59190613b4d565b60405180910390f35b61031860048036036103139190810190612bf6565b610a6a565b604051610325919061382e565b60405180910390f35b61034860048036036103439190810190612bf6565b610a87565b005b610364600480360361035f9190810190612cc2565b610adb565b005b610380600480360361037b9190810190612e56565b610afb565b005b61039c60048036036103979190810190612e56565b610bd5565b6040516103a99190613b4d565b60405180910390f35b6103cc60048036036103c79190810190612dc8565b610c3f565b005b6103e860048036036103e39190810190612e56565b610c96565b6040516103f591906137c7565b60405180910390f35b61041860048036036104139190810190612bf6565b610d48565b005b610434600480360361042f9190810190612bf6565b610da5565b6040516104419190613b4d565b60405180910390f35b610452610e64565b60405161045f9190613b4d565b60405180910390f35b610470610e75565b60405161047d9190613849565b60405180910390f35b6104a0600480360361049b9190810190612bf6565b610f17565b005b6104bc60048036036104b79190810190612d8c565b610f6b565b005b6104d860048036036104d39190810190612e56565b6110ec565b6040516104e59190613b2b565b60405180910390f35b61050860048036036105039190810190612d11565b6112d0565b005b610524600480360361051f9190810190612e56565b611332565b6040516105319190613849565b60405180910390f35b610554600480360361054f9190810190612c5b565b61142f565b6040516105619190613b4d565b60405180910390f35b610584600480360361057f9190810190612c1f565b611674565b604051610591919061382e565b60405180910390f35b6000806000837bffffffffffffffffffffffffffffffffffffffffffffffffffffffff19167bffffffffffffffffffffffffffffffffffffffffffffffffffffffff1916815260200190815260200160002060009054906101000a900460ff169050919050565b606060058054600181600116156101000203166002900480601f0160208091040260200160405190810160405280929190818152602001828054600181600116156101000203166002900480156106995780601f1061066e57610100808354040283529160200191610699565b820191906000526020600020905b81548152906001019060200180831161067c57829003601f168201915b5050505050905090565b60006106ae82611708565b6106ed576040517f08c379a00000000000000000000000000000000000000000000000000000000081526004016106e490613a0b565b60405180910390fd5b6002600083815260200190815260200160002060009054906101000a900473ffffffffffffffffffffffffffffffffffffffff169050919050565b600061073382610c96565b90508073ffffffffffffffffffffffffffffffffffffffff168373ffffffffffffffffffffffffffffffffffffffff1614156107a4576040517f08c379a000000000000000000000000000000000000000000000000000000000815260040161079b90613aab565b60405180910390fd5b8073ffffffffffffffffffffffffffffffffffffffff166107c361177a565b73ffffffffffffffffffffffffffffffffffffffff1614806107f257506107f1816107ec61177a565b611674565b5b610831576040517f08c379a00000000000000000000000000000000000000000000000000000000081526004016108289061396b565b60405180910390fd5b826002600084815260200190815260200160002060006101000a81548173ffffffffffffffffffffffffffffffffffffffff021916908373ffffffffffffffffffffffffffffffffffffffff160217905550818373ffffffffffffffffffffffffffffffffffffffff168273ffffffffffffffffffffffffffffffffffffffff167f8c5be1e5ebec7d5bd14f71427d1e84f3dd0314c0f7b2291e5b200ac8c7c3b92560405160405180910390a4505050565b6108ec336109a4565b61092b576040517f08c379a00000000000000000000000000000000000000000000000000000000081526004016109229061388b565b60405180910390fd5b61093481611782565b50565b6000600a80549050905090565b61095561094f61177a565b826117dc565b610994576040517f08c379a000000000000000000000000000000000000000000000000000000000815260040161098b90613acb565b60405180910390fd5b61099f8383836118ba565b505050565b60006109ba82600f6118de90919063ffffffff16565b9050919050565b60006109cc83610da5565b8210610a0d576040517f08c379a0000000000000000000000000000000000000000000000000000000008152600401610a04906138ab565b60405180910390fd5b600860008473ffffffffffffffffffffffffffffffffffffffff1673ffffffffffffffffffffffffffffffffffffffff1681526020019081526020016000208281548110610a5757fe5b9060005260206000200154905092915050565b6000610a8082600e6118de90919063ffffffff16565b9050919050565b610a90336109a4565b610acf576040517f08c379a0000000000000000000000000000000000000000000000000000000008152600401610ac69061388b565b60405180910390fd5b610ad8816119a6565b50565b610af6838383604051806020016040528060008152506112d0565b505050565b610b04336109a4565b610b43576040517f08c379a0000000000000000000000000000000000000000000000000000000008152600401610b3a9061388b565b60405180910390fd5b610b4c81611a00565b600d60008281526020019081526020016000206000808201600090556001820160006101000a81549073ffffffffffffffffffffffffffffffffffffffff02191690556002820160006101000a81549073ffffffffffffffffffffffffffffffffffffffff0219169055600382016000610bc6919061297d565b5050610bd2600c611a15565b50565b6000610bdf610937565b8210610c20576040517f08c379a0000000000000000000000000000000000000000000000000000000008152600401610c1790613aeb565b60405180910390fd5b600a8281548110610c2d57fe5b90600052602060002001549050919050565b610c4833610a6a565b610c87576040517f08c379a0000000000000000000000000000000000000000000000000000000008152600401610c7e90613a8b565b60405180910390fd5b610c92338383610adb565b5050565b6000806001600084815260200190815260200160002060009054906101000a900473ffffffffffffffffffffffffffffffffffffffff169050600073ffffffffffffffffffffffffffffffffffffffff168173ffffffffffffffffffffffffffffffffffffffff161415610d3f576040517f08c379a0000000000000000000000000000000000000000000000000000000008152600401610d36906139ab565b60405180910390fd5b80915050919050565b610d51336109a4565b610d90576040517f08c379a0000000000000000000000000000000000000000000000000000000008152600401610d879061388b565b60405180910390fd5b610d9981611a38565b610da2816119a6565b50565b60008073ffffffffffffffffffffffffffffffffffffffff168273ffffffffffffffffffffffffffffffffffffffff161415610e16576040517f08c379a0000000000000000000000000000000000000000000000000000000008152600401610e0d9061398b565b60405180910390fd5b610e5d600360008473ffffffffffffffffffffffffffffffffffffffff1673ffffffffffffffffffffffffffffffffffffffff168152602001908152602001600020611a92565b9050919050565b6000610e70600c611a92565b905090565b606060068054600181600116156101000203166002900480601f016020809104026020016040519081016040528092919081815260200182805460018160011615610100020316600290048015610f0d5780601f10610ee257610100808354040283529160200191610f0d565b820191906000526020600020905b815481529060010190602001808311610ef057829003601f168201915b5050505050905090565b610f20336109a4565b610f5f576040517f08c379a0000000000000000000000000000000000000000000000000000000008152600401610f569061388b565b60405180910390fd5b610f6881611aa0565b50565b610f7361177a565b73ffffffffffffffffffffffffffffffffffffffff168273ffffffffffffffffffffffffffffffffffffffff161415610fe1576040517f08c379a0000000000000000000000000000000000000000000000000000000008152600401610fd89061392b565b60405180910390fd5b8060046000610fee61177a565b73ffffffffffffffffffffffffffffffffffffffff1673ffffffffffffffffffffffffffffffffffffffff16815260200190815260200160002060008473ffffffffffffffffffffffffffffffffffffffff1673ffffffffffffffffffffffffffffffffffffffff16815260200190815260200160002060006101000a81548160ff0219169083151502179055508173ffffffffffffffffffffffffffffffffffffffff1661109b61177a565b73ffffffffffffffffffffffffffffffffffffffff167f17307eab39ab6107e8899845ad3d59bd9653f200f220920489ca2b5937696c31836040516110e0919061382e565b60405180910390a35050565b6110f46129c5565b816000611100336109a4565b905060003373ffffffffffffffffffffffffffffffffffffffff1661112484610c96565b73ffffffffffffffffffffffffffffffffffffffff161490508180611147575080155b61115057600080fd5b600d6000868152602001908152602001600020604051806080016040529081600082015481526020016001820160009054906101000a900473ffffffffffffffffffffffffffffffffffffffff1673ffffffffffffffffffffffffffffffffffffffff1673ffffffffffffffffffffffffffffffffffffffff1681526020016002820160009054906101000a900473ffffffffffffffffffffffffffffffffffffffff1673ffffffffffffffffffffffffffffffffffffffff1673ffffffffffffffffffffffffffffffffffffffff168152602001600382018054600181600116156101000203166002900480601f0160208091040260200160405190810160405280929190818152602001828054600181600116156101000203166002900480156112bd5780601f10611292576101008083540402835291602001916112bd565b820191906000526020600020905b8154815290600101906020018083116112a057829003601f168201915b5050505050815250509350505050919050565b6112e16112db61177a565b836117dc565b611320576040517f08c379a000000000000000000000000000000000000000000000000000000000815260040161131790613acb565b60405180910390fd5b61132c84848484611afa565b50505050565b606061133d82611708565b61137c576040517f08c379a000000000000000000000000000000000000000000000000000000000815260040161137390613a6b565b60405180910390fd5b600760008381526020019081526020016000208054600181600116156101000203166002900480601f0160208091040260200160405190810160405280929190818152602001828054600181600116156101000203166002900480156114235780601f106113f857610100808354040283529160200191611423565b820191906000526020600020905b81548152906001019060200180831161140657829003601f168201915b50505050509050919050565b600061143a336109a4565b611479576040517f08c379a00000000000000000000000000000000000000000000000000000000081526004016114709061388b565b60405180910390fd5b8361148e81600e6118de90919063ffffffff16565b6114cd576040517f08c379a00000000000000000000000000000000000000000000000000000000081526004016114c490613a8b565b60405180910390fd5b836114e281600e6118de90919063ffffffff16565b611521576040517f08c379a000000000000000000000000000000000000000000000000000000000815260040161151890613a8b565b60405180910390fd5b600061152d600c611a92565b90506115398782611b56565b6115416129c5565b60405180608001604052808381526020018973ffffffffffffffffffffffffffffffffffffffff1681526020018873ffffffffffffffffffffffffffffffffffffffff16815260200187815250905080600d60008481526020019081526020016000206000820151816000015560208201518160010160006101000a81548173ffffffffffffffffffffffffffffffffffffffff021916908373ffffffffffffffffffffffffffffffffffffffff16021790555060408201518160020160006101000a81548173ffffffffffffffffffffffffffffffffffffffff021916908373ffffffffffffffffffffffffffffffffffffffff1602179055506060820151816003019080519060200190611658929190612a19565b50905050611666600c611b74565b819450505050509392505050565b6000600460008473ffffffffffffffffffffffffffffffffffffffff1673ffffffffffffffffffffffffffffffffffffffff16815260200190815260200160002060008373ffffffffffffffffffffffffffffffffffffffff1673ffffffffffffffffffffffffffffffffffffffff16815260200190815260200160002060009054906101000a900460ff16905092915050565b6000806001600084815260200190815260200160002060009054906101000a900473ffffffffffffffffffffffffffffffffffffffff169050600073ffffffffffffffffffffffffffffffffffffffff168173ffffffffffffffffffffffffffffffffffffffff161415915050919050565b600033905090565b61179681600f611b8a90919063ffffffff16565b8073ffffffffffffffffffffffffffffffffffffffff167fa3b62bc36326052d97ea62d63c3d60308ed4c3ea8ac079dd8499f1e9c4f80c0f60405160405180910390a250565b60006117e782611708565b611826576040517f08c379a000000000000000000000000000000000000000000000000000000000815260040161181d9061394b565b60405180910390fd5b600061183183610c96565b90508073ffffffffffffffffffffffffffffffffffffffff168473ffffffffffffffffffffffffffffffffffffffff1614806118a057508373ffffffffffffffffffffffffffffffffffffffff16611888846106a3565b73ffffffffffffffffffffffffffffffffffffffff16145b806118b157506118b08185611674565b5b91505092915050565b6118c5838383611c31565b6118cf8382611e60565b6118d98282611ffe565b505050565b60008073ffffffffffffffffffffffffffffffffffffffff168273ffffffffffffffffffffffffffffffffffffffff16141561194f576040517f08c379a000000000000000000000000000000000000000000000000000000000815260040161194690613a2b565b60405180910390fd5b8260000160008373ffffffffffffffffffffffffffffffffffffffff1673ffffffffffffffffffffffffffffffffffffffff16815260200190815260200160002060009054906101000a900460ff16905092915050565b6119ba81600e6120c590919063ffffffff16565b8073ffffffffffffffffffffffffffffffffffffffff167f19ef9a4877199f89440a26acb26895ec02ed86f2df1aeaa90dc18041b892f71f60405160405180910390a250565b611a12611a0c82610c96565b8261216d565b50565b611a2d600182600001546121a790919063ffffffff16565b816000018190555050565b611a4c81600f6120c590919063ffffffff16565b8073ffffffffffffffffffffffffffffffffffffffff167f44d6d25963f097ad14f29f06854a01f575648a1ef82f30e562ccd3889717e33960405160405180910390a250565b600081600001549050919050565b611ab481600e611b8a90919063ffffffff16565b8073ffffffffffffffffffffffffffffffffffffffff167fe9dce8c992623ce791725b21e857e33248d1f190a25b5168313420eebdaae99d60405160405180910390a250565b611b058484846118ba565b611b11848484846121f1565b611b50576040517f08c379a0000000000000000000000000000000000000000000000000000000008152600401611b47906138cb565b60405180910390fd5b50505050565b611b7082826040518060200160405280600081525061230f565b5050565b6001816000016000828254019250508190555050565b611b9482826118de565b611bd3576040517f08c379a0000000000000000000000000000000000000000000000000000000008152600401611bca906139cb565b60405180910390fd5b60008260000160008373ffffffffffffffffffffffffffffffffffffffff1673ffffffffffffffffffffffffffffffffffffffff16815260200190815260200160002060006101000a81548160ff0219169083151502179055505050565b8273ffffffffffffffffffffffffffffffffffffffff16611c5182610c96565b73ffffffffffffffffffffffffffffffffffffffff1614611ca7576040517f08c379a0000000000000000000000000000000000000000000000000000000008152600401611c9e90613a4b565b60405180910390fd5b600073ffffffffffffffffffffffffffffffffffffffff168273ffffffffffffffffffffffffffffffffffffffff161415611d17576040517f08c379a0000000000000000000000000000000000000000000000000000000008152600401611d0e9061390b565b60405180910390fd5b611d208161236a565b611d67600360008573ffffffffffffffffffffffffffffffffffffffff1673ffffffffffffffffffffffffffffffffffffffff168152602001908152602001600020611a15565b611dae600360008473ffffffffffffffffffffffffffffffffffffffff1673ffffffffffffffffffffffffffffffffffffffff168152602001908152602001600020611b74565b816001600083815260200190815260200160002060006101000a81548173ffffffffffffffffffffffffffffffffffffffff021916908373ffffffffffffffffffffffffffffffffffffffff160217905550808273ffffffffffffffffffffffffffffffffffffffff168473ffffffffffffffffffffffffffffffffffffffff167fddf252ad1be2c89b69c2b068fc378daa952ba7f163c4a11628f55a4df523b3ef60405160405180910390a4505050565b6000611eb86001600860008673ffffffffffffffffffffffffffffffffffffffff1673ffffffffffffffffffffffffffffffffffffffff168152602001908152602001600020805490506121a790919063ffffffff16565b9050600060096000848152602001908152602001600020549050818114611fa5576000600860008673ffffffffffffffffffffffffffffffffffffffff1673ffffffffffffffffffffffffffffffffffffffff1681526020019081526020016000208381548110611f2557fe5b9060005260206000200154905080600860008773ffffffffffffffffffffffffffffffffffffffff1673ffffffffffffffffffffffffffffffffffffffff1681526020019081526020016000208381548110611f7d57fe5b9060005260206000200181905550816009600083815260200190815260200160002081905550505b600860008573ffffffffffffffffffffffffffffffffffffffff1673ffffffffffffffffffffffffffffffffffffffff168152602001908152602001600020805480919060019003611ff79190612a99565b5050505050565b600860008373ffffffffffffffffffffffffffffffffffffffff1673ffffffffffffffffffffffffffffffffffffffff168152602001908152602001600020805490506009600083815260200190815260200160002081905550600860008373ffffffffffffffffffffffffffffffffffffffff1673ffffffffffffffffffffffffffffffffffffffff1681526020019081526020016000208190806001815401808255809150509060018203906000526020600020016000909192909190915055505050565b6120cf82826118de565b1561210f576040517f08c379a00000000000000000000000000000000000000000000000000000000081526004016121069061386b565b60405180910390fd5b60018260000160008373ffffffffffffffffffffffffffffffffffffffff1673ffffffffffffffffffffffffffffffffffffffff16815260200190815260200160002060006101000a81548160ff0219169083151502179055505050565b6121778282612428565b6121818282611e60565b600060096000838152602001908152602001600020819055506121a381612485565b5050565b60006121e983836040518060400160405280601e81526020017f536166654d6174683a207375627472616374696f6e206f766572666c6f77000081525061253f565b905092915050565b60006122128473ffffffffffffffffffffffffffffffffffffffff1661259a565b61221f5760019050612307565b60008473ffffffffffffffffffffffffffffffffffffffff1663150b7a0261224561177a565b8887876040518563ffffffff1660e01b815260040161226794939291906137e2565b602060405180830381600087803b15801561228157600080fd5b505af1158015612295573d6000803e3d6000fd5b505050506040513d601f19601f820116820180604052506122b99190810190612e2d565b905063150b7a0260e01b7bffffffffffffffffffffffffffffffffffffffffffffffffffffffff1916817bffffffffffffffffffffffffffffffffffffffffffffffffffffffff1916149150505b949350505050565b61231983836125e5565b61232660008484846121f1565b612365576040517f08c379a000000000000000000000000000000000000000000000000000000000815260040161235c906138cb565b60405180910390fd5b505050565b600073ffffffffffffffffffffffffffffffffffffffff166002600083815260200190815260200160002060009054906101000a900473ffffffffffffffffffffffffffffffffffffffff1673ffffffffffffffffffffffffffffffffffffffff16146124255760006002600083815260200190815260200160002060006101000a81548173ffffffffffffffffffffffffffffffffffffffff021916908373ffffffffffffffffffffffffffffffffffffffff1602179055505b50565b6124328282612606565b6000600760008381526020019081526020016000208054600181600116156101000203166002900490501461248157600760008281526020019081526020016000206000612480919061297d565b5b5050565b60006124a06001600a805490506121a790919063ffffffff16565b90506000600b60008481526020019081526020016000205490506000600a83815481106124c957fe5b9060005260206000200154905080600a83815481106124e457fe5b906000526020600020018190555081600b600083815260200190815260200160002081905550600a80548091906001900361251f9190612a99565b506000600b60008681526020019081526020016000208190555050505050565b6000838311158290612587576040517f08c379a000000000000000000000000000000000000000000000000000000000815260040161257e9190613849565b60405180910390fd5b5060008385039050809150509392505050565b60008060007fc5d2460186f7233c927e7db2dcc703c0e500b653ca82273b7bfad8045d85a47060001b9050833f91506000801b82141580156125dc5750808214155b92505050919050565b6125ef828261277f565b6125f98282611ffe565b61260281612931565b5050565b8173ffffffffffffffffffffffffffffffffffffffff1661262682610c96565b73ffffffffffffffffffffffffffffffffffffffff161461267c576040517f08c379a000000000000000000000000000000000000000000000000000000000815260040161267390613b0b565b60405180910390fd5b6126858161236a565b6126cc600360008473ffffffffffffffffffffffffffffffffffffffff1673ffffffffffffffffffffffffffffffffffffffff168152602001908152602001600020611a15565b60006001600083815260200190815260200160002060006101000a81548173ffffffffffffffffffffffffffffffffffffffff021916908373ffffffffffffffffffffffffffffffffffffffff16021790555080600073ffffffffffffffffffffffffffffffffffffffff168373ffffffffffffffffffffffffffffffffffffffff167fddf252ad1be2c89b69c2b068fc378daa952ba7f163c4a11628f55a4df523b3ef60405160405180910390a45050565b600073ffffffffffffffffffffffffffffffffffffffff168273ffffffffffffffffffffffffffffffffffffffff1614156127ef576040517f08c379a00000000000000000000000000000000000000000000000000000000081526004016127e6906139eb565b60405180910390fd5b6127f881611708565b15612838576040517f08c379a000000000000000000000000000000000000000000000000000000000815260040161282f906138eb565b60405180910390fd5b816001600083815260200190815260200160002060006101000a81548173ffffffffffffffffffffffffffffffffffffffff021916908373ffffffffffffffffffffffffffffffffffffffff1602179055506128d1600360008473ffffffffffffffffffffffffffffffffffffffff1673ffffffffffffffffffffffffffffffffffffffff168152602001908152602001600020611b74565b808273ffffffffffffffffffffffffffffffffffffffff16600073ffffffffffffffffffffffffffffffffffffffff167fddf252ad1be2c89b69c2b068fc378daa952ba7f163c4a11628f55a4df523b3ef60405160405180910390a45050565b600a80549050600b600083815260200190815260200160002081905550600a81908060018154018082558091505090600182039060005260206000200160009091929091909150555050565b50805460018160011615610100020316600290046000825580601f106129a357506129c2565b601f0160209004906000526020600020908101906129c19190612ac5565b5b50565b604051806080016040528060008152602001600073ffffffffffffffffffffffffffffffffffffffff168152602001600073ffffffffffffffffffffffffffffffffffffffff168152602001606081525090565b828054600181600116156101000203166002900490600052602060002090601f016020900481019282601f10612a5a57805160ff1916838001178555612a88565b82800160010185558215612a88579182015b82811115612a87578251825591602001919060010190612a6c565b5b509050612a959190612ac5565b5090565b815481835581811115612ac057818360005260206000209182019101612abf9190612ac5565b5b505050565b612ae791905b80821115612ae3576000816000905550600101612acb565b5090565b90565b6000612af68235613c89565b905092915050565b6000612b0a8235613c9b565b905092915050565b6000612b1e8235613ca7565b905092915050565b6000612b328251613ca7565b905092915050565b600082601f830112612b4b57600080fd5b8135612b5e612b5982613b95565b613b68565b91508082526020830160208301858383011115612b7a57600080fd5b612b85838284613d33565b50505092915050565b600082601f830112612b9f57600080fd5b8135612bb2612bad82613bc1565b613b68565b91508082526020830160208301858383011115612bce57600080fd5b612bd9838284613d33565b50505092915050565b6000612bee8235613cf3565b905092915050565b600060208284031215612c0857600080fd5b6000612c1684828501612aea565b91505092915050565b60008060408385031215612c3257600080fd5b6000612c4085828601612aea565b9250506020612c5185828601612aea565b9150509250929050565b600080600060608486031215612c7057600080fd5b6000612c7e86828701612aea565b9350506020612c8f86828701612aea565b925050604084013567ffffffffffffffff811115612cac57600080fd5b612cb886828701612b8e565b9150509250925092565b600080600060608486031215612cd757600080fd5b6000612ce586828701612aea565b9350506020612cf686828701612aea565b9250506040612d0786828701612be2565b9150509250925092565b60008060008060808587031215612d2757600080fd5b6000612d3587828801612aea565b9450506020612d4687828801612aea565b9350506040612d5787828801612be2565b925050606085013567ffffffffffffffff811115612d7457600080fd5b612d8087828801612b3a565b91505092959194509250565b60008060408385031215612d9f57600080fd5b6000612dad85828601612aea565b9250506020612dbe85828601612afe565b9150509250929050565b60008060408385031215612ddb57600080fd5b6000612de985828601612aea565b9250506020612dfa85828601612be2565b9150509250929050565b600060208284031215612e1657600080fd5b6000612e2484828501612b12565b91505092915050565b600060208284031215612e3f57600080fd5b6000612e4d84828501612b26565b91505092915050565b600060208284031215612e6857600080fd5b6000612e7684828501612be2565b91505092915050565b612e8881613cfd565b82525050565b612e9781613c41565b82525050565b612ea681613c41565b82525050565b612eb581613c53565b82525050565b6000612ec682613bed565b612ed08185613c0e565b9350612ee0818560208601613d42565b612ee981613d75565b840191505092915050565b6000612eff82613c03565b612f098185613c30565b9350612f19818560208601613d42565b612f2281613d75565b840191505092915050565b6000612f3882613bf8565b612f428185613c1f565b9350612f52818560208601613d42565b612f5b81613d75565b840191505092915050565b6000612f73601f83613c30565b91507f526f6c65733a206163636f756e7420616c72656164792068617320726f6c65006000830152602082019050919050565b6000612fb3601883613c30565b91507f444f45535f4e4f545f484156455f41444d494e5f524f4c4500000000000000006000830152602082019050919050565b6000612ff3602b83613c30565b91507f455243373231456e756d657261626c653a206f776e657220696e646578206f7560008301527f74206f6620626f756e64730000000000000000000000000000000000000000006020830152604082019050919050565b6000613059603283613c30565b91507f4552433732313a207472616e7366657220746f206e6f6e20455243373231526560008301527f63656976657220696d706c656d656e74657200000000000000000000000000006020830152604082019050919050565b60006130bf601c83613c30565b91507f4552433732313a20746f6b656e20616c7265616479206d696e746564000000006000830152602082019050919050565b60006130ff602483613c30565b91507f4552433732313a207472616e7366657220746f20746865207a65726f2061646460008301527f72657373000000000000000000000000000000000000000000000000000000006020830152604082019050919050565b6000613165601983613c30565b91507f4552433732313a20617070726f766520746f2063616c6c6572000000000000006000830152602082019050919050565b60006131a5602c83613c30565b91507f4552433732313a206f70657261746f7220717565727920666f72206e6f6e657860008301527f697374656e7420746f6b656e00000000000000000000000000000000000000006020830152604082019050919050565b600061320b603883613c30565b91507f4552433732313a20617070726f76652063616c6c6572206973206e6f74206f7760008301527f6e6572206e6f7220617070726f76656420666f7220616c6c00000000000000006020830152604082019050919050565b6000613271602a83613c30565b91507f4552433732313a2062616c616e636520717565727920666f7220746865207a6560008301527f726f2061646472657373000000000000000000000000000000000000000000006020830152604082019050919050565b60006132d7602983613c30565b91507f4552433732313a206f776e657220717565727920666f72206e6f6e657869737460008301527f656e7420746f6b656e00000000000000000000000000000000000000000000006020830152604082019050919050565b600061333d602183613c30565b91507f526f6c65733a206163636f756e7420646f6573206e6f74206861766520726f6c60008301527f65000000000000000000000000000000000000000000000000000000000000006020830152604082019050919050565b60006133a3602083613c30565b91507f4552433732313a206d696e7420746f20746865207a65726f20616464726573736000830152602082019050919050565b60006133e3602c83613c30565b91507f4552433732313a20617070726f76656420717565727920666f72206e6f6e657860008301527f697374656e7420746f6b656e00000000000000000000000000000000000000006020830152604082019050919050565b6000613449602283613c30565b91507f526f6c65733a206163636f756e7420697320746865207a65726f20616464726560008301527f73730000000000000000000000000000000000000000000000000000000000006020830152604082019050919050565b60006134af602983613c30565b91507f4552433732313a207472616e73666572206f6620746f6b656e2074686174206960008301527f73206e6f74206f776e00000000000000000000000000000000000000000000006020830152604082019050919050565b6000613515602f83613c30565b91507f4552433732314d657461646174613a2055524920717565727920666f72206e6f60008301527f6e6578697374656e7420746f6b656e00000000000000000000000000000000006020830152604082019050919050565b600061357b601783613c30565b91507f444f45535f4e4f545f484156455f555345525f524f4c450000000000000000006000830152602082019050919050565b60006135bb602183613c30565b91507f4552433732313a20617070726f76616c20746f2063757272656e74206f776e6560008301527f72000000000000000000000000000000000000000000000000000000000000006020830152604082019050919050565b6000613621603183613c30565b91507f4552433732313a207472616e736665722063616c6c6572206973206e6f74206f60008301527f776e6572206e6f7220617070726f7665640000000000000000000000000000006020830152604082019050919050565b6000613687602c83613c30565b91507f455243373231456e756d657261626c653a20676c6f62616c20696e646578206f60008301527f7574206f6620626f756e647300000000000000000000000000000000000000006020830152604082019050919050565b60006136ed602583613c30565b91507f4552433732313a206275726e206f6620746f6b656e2074686174206973206e6f60008301527f74206f776e0000000000000000000000000000000000000000000000000000006020830152604082019050919050565b600060808301600083015161375e60008601826137a9565b5060208301516137716020860182612e8e565b5060408301516137846040860182612e8e565b506060830151848203606086015261379c8282612f2d565b9150508091505092915050565b6137b281613c7f565b82525050565b6137c181613c7f565b82525050565b60006020820190506137dc6000830184612e9d565b92915050565b60006080820190506137f76000830187612e7f565b6138046020830186612e9d565b61381160408301856137b8565b81810360608301526138238184612ebb565b905095945050505050565b60006020820190506138436000830184612eac565b92915050565b600060208201905081810360008301526138638184612ef4565b905092915050565b6000602082019050818103600083015261388481612f66565b9050919050565b600060208201905081810360008301526138a481612fa6565b9050919050565b600060208201905081810360008301526138c481612fe6565b9050919050565b600060208201905081810360008301526138e48161304c565b9050919050565b60006020820190508181036000830152613904816130b2565b9050919050565b60006020820190508181036000830152613924816130f2565b9050919050565b6000602082019050818103600083015261394481613158565b9050919050565b6000602082019050818103600083015261396481613198565b9050919050565b60006020820190508181036000830152613984816131fe565b9050919050565b600060208201905081810360008301526139a481613264565b9050919050565b600060208201905081810360008301526139c4816132ca565b9050919050565b600060208201905081810360008301526139e481613330565b9050919050565b60006020820190508181036000830152613a0481613396565b9050919050565b60006020820190508181036000830152613a24816133d6565b9050919050565b60006020820190508181036000830152613a448161343c565b9050919050565b60006020820190508181036000830152613a64816134a2565b9050919050565b60006020820190508181036000830152613a8481613508565b9050919050565b60006020820190508181036000830152613aa48161356e565b9050919050565b60006020820190508181036000830152613ac4816135ae565b9050919050565b60006020820190508181036000830152613ae481613614565b9050919050565b60006020820190508181036000830152613b048161367a565b9050919050565b60006020820190508181036000830152613b24816136e0565b9050919050565b60006020820190508181036000830152613b458184613746565b905092915050565b6000602082019050613b6260008301846137b8565b92915050565b6000604051905081810181811067ffffffffffffffff82111715613b8b57600080fd5b8060405250919050565b600067ffffffffffffffff821115613bac57600080fd5b601f19601f8301169050602081019050919050565b600067ffffffffffffffff821115613bd857600080fd5b601f19601f8301169050602081019050919050565b600081519050919050565b600081519050919050565b600081519050919050565b600082825260208201905092915050565b600082825260208201905092915050565b600082825260208201905092915050565b6000613c4c82613c5f565b9050919050565b60008115159050919050565b600073ffffffffffffffffffffffffffffffffffffffff82169050919050565b6000819050919050565b6000613c9482613cd3565b9050919050565b60008115159050919050565b60007fffffffff0000000000000000000000000000000000000000000000000000000082169050919050565b600073ffffffffffffffffffffffffffffffffffffffff82169050919050565b6000819050919050565b6000613d0882613d0f565b9050919050565b6000613d1a82613d21565b9050919050565b6000613d2c82613c5f565b9050919050565b82818337600083830152505050565b60005b83811015613d60578082015181840152602081019050613d45565b83811115613d6f576000848401525b50505050565b6000601f19601f830116905091905056fea265627a7a72305820517bdcae0b30f35614c79883a0aa0d41f900e66f05b3a7c77e30fabea61f550a6c6578706572696d656e74616cf50037",
  "source": "pragma solidity ^0.5.0;\npragma experimental ABIEncoderV2;\n\n// see https://github.com/OpenZeppelin/simplezeppelin-solidity/tree/master/contracts/token/ERC721\nimport \"@openzeppelin/contracts/token/ERC721/ERC721Metadata.sol\";\nimport \"@openzeppelin/contracts/token/ERC721/ERC721Enumerable.sol\";\nimport \"./simple-token/MintableBurnableSimpleToken.sol\";\n\ncontract SimpleToken is\n    ERC721Metadata,\n    ERC721Enumerable,\n    MintableBurnableSimpleToken\n{\n    constructor() public ERC721Metadata(\"SimpleToken\", \"spTkn\") {}\n\n    modifier hasAccess(uint256 _tokenId) {\n        bool isAnAdmin = isAdmin(msg.sender);\n        bool isTheOwner = address(uint160(ownerOf(_tokenId))) == msg.sender;\n\n        // TODO: Check how to compare these 2 addresses\n        // require(isAnAdmin || isTheOwner);\n        require(isAnAdmin || !isTheOwner);\n        _;\n    }\n\n    function safeTransferFrom(address to, uint256 tokenId) public onlyUser {\n        safeTransferFrom(msg.sender, to, tokenId);\n    }\n\n    function getSimpleToken(uint256 _tokenId)\n        public\n        view\n        hasAccess(_tokenId)\n        returns (SimpleTkn memory token)\n    {\n        token = _tokenList[_tokenId];\n    }\n}\n",
  "sourcePath": "/home/paf/Documents/wtf/ERC721/contracts/SimpleToken.sol",
  "compiler": {
    "name": "solc",
    "version": "0.5.7+commit.6da8b019.Emscripten.clang"
  },
  "schemaVersion": "3.0.19",
  "updatedAt": "2020-01-15T09:03:05.341Z",
  "devdoc": {
    "methods": {
      "approve(address,uint256)": {
        "details": "Approves another address to transfer the given token ID The zero address indicates there is no approved address. There can only be one approved address per token at a given time. Can only be called by the token owner or an approved operator.",
        "params": {
          "to": "address to be approved for the given token ID",
          "tokenId": "uint256 ID of the token to be approved"
        }
      },
      "balanceOf(address)": {
        "details": "Gets the balance of the specified address.",
        "params": {
          "owner": "address to query the balance of"
        },
        "return": "uint256 representing the amount owned by the passed address"
      },
      "getApproved(uint256)": {
        "details": "Gets the approved address for a token ID, or zero if no address set Reverts if the token ID does not exist.",
        "params": {
          "tokenId": "uint256 ID of the token to query the approval of"
        },
        "return": "address currently approved for the given token ID"
      },
      "isApprovedForAll(address,address)": {
        "details": "Tells whether an operator is approved by a given owner.",
        "params": {
          "operator": "operator address which you want to query the approval of",
          "owner": "owner address which you want to query the approval of"
        },
        "return": "bool whether the given operator is approved by the given owner"
      },
      "name()": {
        "details": "Gets the token name.",
        "return": "string representing the token name"
      },
      "ownerOf(uint256)": {
        "details": "Gets the owner of the specified token ID.",
        "params": {
          "tokenId": "uint256 ID of the token to query the owner of"
        },
        "return": "address currently marked as the owner of the given token ID"
      },
      "safeTransferFrom(address,address,uint256)": {
        "details": "Safely transfers the ownership of a given token ID to another address If the target address is a contract, it must implement {IERC721Receiver-onERC721Received}, which is called upon a safe transfer, and return the magic value `bytes4(keccak256(\"onERC721Received(address,address,uint256,bytes)\"))`; otherwise, the transfer is reverted. Requires the msg.sender to be the owner, approved, or operator",
        "params": {
          "from": "current owner of the token",
          "to": "address to receive the ownership of the given token ID",
          "tokenId": "uint256 ID of the token to be transferred"
        }
      },
      "safeTransferFrom(address,address,uint256,bytes)": {
        "details": "Safely transfers the ownership of a given token ID to another address If the target address is a contract, it must implement {IERC721Receiver-onERC721Received}, which is called upon a safe transfer, and return the magic value `bytes4(keccak256(\"onERC721Received(address,address,uint256,bytes)\"))`; otherwise, the transfer is reverted. Requires the _msgSender() to be the owner, approved, or operator",
        "params": {
          "_data": "bytes data to send along with a safe transfer check",
          "from": "current owner of the token",
          "to": "address to receive the ownership of the given token ID",
          "tokenId": "uint256 ID of the token to be transferred"
        }
      },
      "setApprovalForAll(address,bool)": {
        "details": "Sets or unsets the approval of a given operator An operator is allowed to transfer all tokens of the sender on their behalf.",
        "params": {
          "approved": "representing the status of the approval to be set",
          "to": "operator address to set the approval"
        }
      },
      "supportsInterface(bytes4)": {
        "details": "See {IERC165-supportsInterface}.     * Time complexity O(1), guaranteed to always use less than 30 000 gas."
      },
      "symbol()": {
        "details": "Gets the token symbol.",
        "return": "string representing the token symbol"
      },
      "tokenByIndex(uint256)": {
        "details": "Gets the token ID at a given index of all the tokens in this contract Reverts if the index is greater or equal to the total number of tokens.",
        "params": {
          "index": "uint256 representing the index to be accessed of the tokens list"
        },
        "return": "uint256 token ID at the given index of the tokens list"
      },
      "tokenOfOwnerByIndex(address,uint256)": {
        "details": "Gets the token ID at a given index of the tokens list of the requested owner.",
        "params": {
          "index": "uint256 representing the index to be accessed of the requested tokens list",
          "owner": "address owning the tokens list to be accessed"
        },
        "return": "uint256 token ID at the given index of the tokens list owned by the requested address"
      },
      "tokenURI(uint256)": {
        "details": "Returns an URI for a given token ID. Throws if the token ID does not exist. May return an empty string.",
        "params": {
          "tokenId": "uint256 ID of the token to query"
        }
      },
      "totalSupply()": {
        "details": "Gets the total amount of tokens stored by the contract.",
        "return": "uint256 representing the total amount of tokens"
      },
      "transferFrom(address,address,uint256)": {
        "details": "Transfers the ownership of a given token ID to another address. Usage of this method is discouraged, use {safeTransferFrom} whenever possible. Requires the msg.sender to be the owner, approved, or operator.",
        "params": {
          "from": "current owner of the token",
          "to": "address to receive the ownership of the given token ID",
          "tokenId": "uint256 ID of the token to be transferred"
        }
      }
    }
  },
  "userdoc": {
    "methods": {}
  }
}